:0300000002011BDF
:0C011B00787FE4F6D8FD758120020127F2
:030139000200DFE2
:0B01270012013912009A12000E80F83D
:03013C00B2B0223C
:0F010C00EF44F055B0442052B0EF540F42B022F0
:1000DF007509111200F6120003E4FF12010C43B26E
:0700EF000F12013250FB2249
:10009A00300221C202E50925E0FFE50913131354D2
:1000AA001F4FF509FF12010C7F327E001200BFE4D8
:0500BA00FF12010C2201
:10004300B200A200E433FF2409F8E6FE25E0FDEE4A
:10005300131313541F4DFE74092FF8A606E5094523
:0C0063000AFF12010CAF0B7E000200BF70
:10000E00750801120132502C85090A120043C3747F
:10001E00329511E4951050EBE4F510F51174FF854F
:10002E0008F084F50BAF0805087432C39F50D475E1
:04003E00083280CF35
:01004200229B
:0700030053B2DF53B1DF220D
:0701320020B502D322C32215
:03000B0002006F81
:10006F00C0E0C0D00511E51170020510050FE50FB6
:10007F007002050ED37464950FE4950E5008D202EA
:0B008F00750E00750F00D0D0D0E032DD
:1000F60043B110438E80758904758A70758CFFD262
:060106008CD2A9D2AF2249
:1000BF00EF1FAC0670011E4C6015750C00750D64BA
:1000CF00E50D150DAC0C7002150C4C60E380F122A0
:00000001FF
