:0300000002038573
:0C038500787FE4F6D8FD7581220200F9B3
:040003001107617808
:06000D008C218D22A907E1
:10001300AD13AC12AF05EF250FF50FC3E5139DF537
:1000230013E5129CF512E50F1313543F7C00FD7E7C
:10003300007802C333CE33CED8F9FFC3E50F9FF563
:100043000FED250EF50EEC350DF50DD3E4950E747D
:10005300C0950D500BE4250EF50E7440350DF50DCE
:10006300E50C1313543F7C00FDE52245217002018A
:10007300F8E96401602CE522250CF50C1313543FB9
:10008300250BF50BE4350AF50AD3E4950B74C095FB
:100093000A500BE4250BF50B7440350AF50A530C93
:1000A3000322E522AE217802CEC313CE13D8F9FD85
:1000B300AC06E5225403FFC3E50C9FE49400500B08
:1000C3000DBD00010C7404250CF50CC3E50B9DE577
:1000D3000A9C500BE4250BF50B74C0350AF50AC3D3
:1000E300E50B9DF50BE50A9CF50AE5225403FFC3D6
:0500F300E50C9FF50C77
:0100F80022E5
:10023900E50BB50E0FE50AB50D0AE50FC3950C5090
:10024900037F0122E4250BFFE50A3460FEC3EF9525
:100259000EEE950D50037F0122C3E50E950BE50DBA
:10026900950A5015E4250EFFE50D3460FEC3E50B34
:0C0279009FE50A9E50037F01227F0022B7
:0200F9001103F1
:1000FB0051858F15E5156514600685151485151644
:10010B00E516B4070050E990011825E073214F2143
:10011B007921B9214021432126212B7158751606CF
:10012B00E4FF31D0E4FDFCFF110D850D0A850E0BAC
:10013B00850F0C80BB751604438701E4FDFCAF17DC
:10014B00110D80ACE4FDFCFF110DE50E650B700489
:10015B00E50D650A6053715851398F17E517B401D6
:10016B00087D557C05E4FF110D7516018082AF17D4
:10017B0031D07D017C00AF17110DE5176016513999
:10018B00EF6401700201FB7D557C057F01110DE4CD
:10019B00F51601FBD3E50E950BE50D950A40020113
:1001AB00FBE50F950C400201FB75160201FB513963
:1001BB00EF6401700201FBE4FF51F77D027C00E468
:0501CB00FF110D01FB16
:0F036900EF44F055B0442052B0EF540F42B02291
:10035800C20375180174FF8518F084F51B85191AF6
:010368002272
:0D0378007519117142E4FF716943B20F2243
:1002F700EF6401600EE51933333354F8FFE519C392
:1003070013800CE51925E0FFE519131313541F4F4C
:10031700F519AF1971697FC87E007127E4FF61691C
:1001D000EF64016015A203E433FF2419F8E6FE334F
:1001E000333354F8FDEEC3138013A203E433FF242A
:1001F00019F8E6FE25E0FDEE131313541F4DFE74AF
:10020000192FF8A606E519451AFF7169B203AF1B4D
:100210007E007127C374039511E49510501AE4F51C
:1002200010F51174FF8518F084F51BAF18051874CC
:0902300032C39F500375183222FD
:0400070053B2DF22EF
:1002850030043920001CA2B5920153B1DF20010DC5
:10029500200205751D058011751D03800CE4F51DF3
:1002A5008007A2B5920243B120B200C204E51C65E5
:0E02B5001D6009851C1E851D1CAF1E22AF1C7E
:0102C3002218
:02000B0041C4EE
:1002C400C0E0C0D00511E511700205100509E5096B
:1002D40070020508D374329509E49508501005138B
:1002E400E51370020512750800750900D204D0D018
:0302F400D0E03225
:1003420043B110438E80758904758AC0758CFDD2C5
:060352008CD2A9D2AF22FB
:10032700EF1FAA0670011E4A60107C007D64ED1D58
:0A033700AA0470011C4A60E880F47B
:010341002299
:00000001FF
