:0300000002012AD0
:0C012A00787FE4F6D8FD758120020136D4
:03014100020109AF
:0B01360012014112009A12000E80F826
:03014400B2B02234
:0F011B00EF44F055B0442052B0EF540F42B022E1
:100109007509111200DF120003E4FF12011B43B24B
:020119000F22B3
:10009A00300321C203E50933333354F8FFE509C3BA
:1000AA00134FF509FF12011B7FC87E001200BFE43F
:0500BA00FF12011B22F2
:10004300B200A200E433FF2409F8E6FE333333544D
:10005300F8FDEEC3134DFE74092FF8A606E5094516
:0C0063000AFF12011BAF0B7E000200BF61
:10000E007508011200F5502C85090A120043C374BD
:10001E00039511E4951050EBE4F510F51174FF857E
:10002E0008F084F50BAF0805087432C39F50D475E1
:04003E00083280CF35
:01004200229B
:0700030043B22043B12022AB
:1000F500A2B5300201B3400920B504D2028002C284
:0301050002A20251
:0101080022D4
:03000B0002006F81
:10006F00C0E0C0D00511E51170020510050FE50FB6
:10007F007002050ED37464950FE4950E5008D203E9
:0B008F00750E00750F00D0D0D0E032DD
:1000DF0043B110438E80758904758AC0758CFDD22B
:0600EF008CD2A9D2AF2261
:1000BF00EF1FAC0670011E4C6015750C00750D64BA
:1000CF00E50D150DAC0C7002150C4C60E380F122A0
:00000001FF
